:02000002D0002C
:1040000000400D00A47E0D00000006000C0005011C
:084010000401BD0B00000000DB
:04401800E0780D003F
:10401C0009480A49884208B505D0094A824202D0AB
:10402C00121A03F0DBFB0748074A0021121A03F0AF
:10403C00FDFB014808BD00BFE8DE0320147E0D0027
:10404C0050DF032050DF0320F0E7032070B5074E4C
:10405C00074C02F0EBFFA41BA4080025A54200D1DD
:10406C0070BD56F8043B98470135F7E7E87D0D0025
:10407C000C7E0D0000F02AB808B500F04BF8BDE836
:10408C00084002F095BF00F03FBB00F045BB007844
:10409C00B0FA80F04009704701230370704710B5E7
:1040AC000446006808B100F037FB204610BD38B557
:1040BC0004464518AC4207D003F0C2F814F8011BB3
:1040CC000A2202F008FFF5E738BD000008B503F03E
:1040DC00B7F84FF4165103F0A3F803F0B1F803F05E
:1040EC00A3F80028F9D003F0ABF8074902F0E9FE79
:1040FC0001F0A2FA01F0EEFA044A0549BDE80840C5
:10410C00104601F045BF00BFF4780D00B0DF03206E
:10411C00BB400D002DE9F04188B001F08DFA01F0A3
:10412C0073FB044648B33C4C3C4D03F089F80368E0
:10413C001B699847A8B12368132B12D803F080F899
:10414C0003685B69984723685A1CE854226003F0A3
:10415C0077F8236802682B44926813F8011C904787
:10416C00E3E7226832B100232C492D4801F08EF888
:10417C000023236008B0BDE8F0812A4D00F0EEF872
:10418C002B68C01AB0F5FA6FF4D300F0E7F828608A
:10419C0001F052FA2449142201F074FB064600285F
:1041AC00E8D0214FDFF89480542503A814FB05F5C3
:1041BC0000F006FE05F10800012203A9384402F0C4
:1041CC00BAF820B90134E4B2B442EDD3D2E7414697
:1041DC0003A800F061FE0028F4D001F02DFA0123B1
:1041EC0001467A1901A802F0E3FB01A90F4801F07E
:1041FC0093F901A801F0B4FB0C4801F097F90028E1
:10420C00B8D00B4A0B49094801F005FF0A4A04498A
:10421C00064801F000FFADE75CE6032048E603200A
:10422C00A8DF03209CDF0320B8DF0320A0DF0320DE
:10423C0088DF0320B0DF032074DF032060DF03205E
:10424C0070B5264C264BA36000252560A580A57172
:10425C00032000F0CDF9234A2349204603F086F9C8
:10426C002946012000F0CCF920492148214C00F0CE
:10427C008DFE2149214800F089FE2149214800F09A
:10428C0085FE14257F26204600F08FFD04F10800E2
:10429C0000F025FF04F12C0000F021FF013D84F813
:1042AC00506004F15404EED1174800F0D5FF0D4ACC
:1042BC001649154803F05AF9154800F0CDFF094A84
:1042CC001249134803F052F9124801F003F9BDE802
:1042DC007040044A10490F4803F048B954DF0320DA
:1042EC000000FFFF50DF0320AB400D000B790D00E9
:1042FC0060DF0320B8DF032030790D0074DF03206A
:10430C0055790D0088DF0320B0DF03205F590D00C5
:10431C00A8DF0320A0DF03206D590D0008B5024B68
:10432C001B689B68019308BD6802030008B5024B2B
:10433C001B68DB68019308BD6802030008B5024BDB
:10434C001B685B68019308BD1802030008B5024B9B
:10435C001B68DB68019308BD1802030008B5024B0B
:10436C001B685B69019308BD1802030008B5024B7A
:10437C001B689B68019308BD7802030008B5024BCB
:10438C001B68DB6F019308BD7802030008B5034B73
:10439C001B68D3F88430019308BD00007802030039
:1043AC0008B5034B1B68D3F89830019308BD000087
:1043BC007802030008B5034B1B68D3F8B4300193A3
:1043CC0008BD00007802030008B5034B1B68D3F846
:1043DC00BC30019308BD00007802030008B5034B04
:1043EC001B68D3F8C430019308BD000078020300A9
:1043FC0008B5034B1B68D3F8D830019308BD0000F7
:10440C007802030008B5034B1B68D3F8DC3001932A
:10441C0008BD00007802030008B5034B1B68D3F8F5
:10442C00E030019308BD00007802030008B5034B8F
:10443C001B68D3F8E430019308BD00007802030038
:10444C0008B5034B1B68D3F8F030019308BD00008E
:10445C007802030008B5034B1B68D3F8F4300193C2
:10446C0008BD00007802030008B5034B1B68D3F8A5
:10447C000031019308BD00007802030008B5034B1E
:10448C001B68D3F80431019308BD000078020300C7
:10449C0008B5024B1B685B6C019308BD4802030016
:1044AC0008B5024B1B689B6C019308BD48020300C6
:1044BC0008B5024B1B68DB6C019308BD4802030076
:1044CC0008B5024B1B685B6D019308BD48020300E5
:1044DC0008B5024B1B685B69019308BD64020300BD
:1044EC0008B5024B1B681B68019308BD3C02030016
:1044FC0008B5024B1B68DB68019308BD3C02030046
:10450C0008B5024B1B681B69019308BD3C020300F4
:10451C0008B5024B1B685B69019308BD3C020300A4
:10452C0008B5024B1B689B69019308BD3C02030054
:10453C0008B5024B1B68DB69019308BD3C02030004
:10454C0008B5024B1B689B6A019308BD3C02030033
:10455C0008B5024B1B681B68019308BD4C02030095
:10456C0008B5024B1B685B68019308BD4C02030045
:10457C0008B5024B1B681B69019308BD4C02030074
:10458C0008B5024B1B685B69019308BD4C02030024
:10459C0008B5024B1B689B69019308BD4C020300D4
:1045AC0008B5024B1B68DB69019308BD4C02030084
:1045BC0008B5024B1B681B6A019308BD4C02030033
:1045CC0008B5024B1B689B6A019308BD4C020300A3
:1045DC0008B5024B1B685B6B019308BD60020300BE
:1045EC0008B5024B1B681B6D019308BD60020300EC
:1045FC0008B5024B1B685B68019308BD20020300E1
:10460C0008B5024B1B68DB6A019308BD200203004E
:10461C0008B5034B1B68D3F88830019308BD000024
:10462C002002030008B5034B1B68D3F894300193A8
:10463C0008BD00002002030008B5024B1B685B6834
:10464C00019308BD4002030008B5024B1B689B6830
:10465C00019308BD4002030008B5024B1B68DB68E0
:10466C00019308BD4002030008B5024B1B681B698F
:10467C00019308BD4002030008B5024B1B685B693F
:10468C00019308BD4002030008B5024B1B689B69EF
:10469C00019308BD4002030008B5024B1B68DB699F
:1046AC00019308BD4002030008B5024B1B681B6A4E
:1046BC00019308BD4002030008B5024B1B681B6B3D
:1046CC00019308BD4002030008B5024B1B685B6BED
:1046DC00019308BD4002030008B5024B1B681B6C1C
:1046EC00019308BD4002030008B5024B1B685B6CCC
:1046FC00019308BD4002030008B5024B1B68DB6B3D
:10470C00019308BD4402030008B5024B1B681B68EB
:10471C00019308BD1C02030008B5024B1B685B68C3
:10472C00019308BD1C02030008B5024B1B689B6873
:10473C00019308BD1C02030008B5024B1B68DB6A21
:10474C00019308BD1C02030008B5024B1B685B6C8F
:10475C00019308BD1C020300002240681146FFF7BC
:10476C00A3BF002240681146FFF7AEBF406800228D
:10477C00FFF7A2BF4068002281F00101FFF78CBF58
:10478C00002340681A461946FFF77EBF0023406895
:10479C001A461946FFF770BF002240681146FFF712
:1047AC0063BF002240681146FFF74EBF40680022ED
:1047BC000221FFF751BF002340681A46FFF73CBFA8
:1047CC00024B03225A60024A1A60704760E60320CB
:1047DC0084790D0010B5094B094C022200201A6097
:1047EC00084B2060A080A071A360FFF701FF20465A
:1047FC00054A0649BDE8104002F0B8BE74E6032035
:10480C0068E603200000FFFF50DF0320AB400D00E3
:10481C0010B504460068FFF77FFF204610BD10B5A9
:10482C000446006808B1FFF777FF0023C4E90133A1
:10483C00236010BD38B504460D4600680131FFF702
:10484C0073FF10B1C4E90005012038BD10B5036831
:10485C00044623B143688B4201D3012010BD20468E
:10486C00FFF7E8FF0028F9D0A368002BF5D12268E8
:10487C001370F2E737B50D46114601920446FFF767
:10488C00E5FF019A28B92046FFF7C9FF204603B07F
:10489C0030BDA2602946206802F0A0FF2268A36800
:1048AC000021D154F2E7002313B5C0E900330446CC
:1048BC008360037341B10846019102F0F5FF019941
:1048CC0002462046FFF7D6FF204602B010BD38B591
:1048DC00054600680C4668B16A688B689A4207D333
:1048EC00096802F0D9FFA368AB600023A36038BD50
:1048FC00FFF712FF23682B6063686B60A368AB60E3
:10490C000023C4E90033F1E710B50023C0E90033FC
:10491C00044683600373FFF7DAFF204610BD88421C
:10492C0010B5044605D00B682BB18A681946FFF701
:10493C00A1FF204610BDFFF772FFFAE710B5002368
:10494C000446C0E9003383600373FFF7E8FF204699
:10495C0010BD13B5044659B10846019102F0A4FFED
:10496C00019902462046FFF785FF204602B010BD94
:10497C00FFF755FFF9E770B505460E4609B900205B
:10498C0070BD6AB1846814442146FFF75FFF0028AC
:10499C00F5D02868AB683146184402F07DFFAC6056
:1049AC000120EDE707B500238DF80410012201A9C1
:1049BC008DF80530FFF7DFFF03B05DF804FB0268EC
:1049CC000B46096862B141B9806860B110787047D4
:1049DC00986840B1097848427047104602F052BFBF
:1049EC000029F5D10846704708B582688B689A4251
:1049FC0005D1FFF7E4FFB0FA80F0400908BD0020B4
:104A0C00FCE770477047704770470000064B9942AF
:104A1C0010B500F10C0405D0084602F0B1FD0028D9
:104A2C0008BF0024204610BDD07B0D00064B9942D8
:104A3C0010B500F10C0405D0084602F0A1FD0028C9
:104A4C0008BF0024204610BDD07B0D00064B9942B8
:104A5C0010B500F10C0405D0084602F091FD0028B9
:104A6C0008BF0024204610BDD07B0D0010B5682176
:104A7C00044602F080FD204610BD10B528210446E6
:104A8C0002F079FD204610BD10B53021044602F02D
:104A9C0072FD204610BDFFF7F8BAFFF7F6BAFFF724
:104AAC00F4BA10B5036804469B689847A368013BA9
:104ABC00A3602BB923682046DB68BDE8104018477B
:104ACC0010BD10B50446006808B1FFF7E9FC20469C
:104ADC0010BD000010B5044B04461868FFF7E8FC45
:104AEC000123237010BD00BF7CE6032010B5044BDE
:104AFC0004461868FFF7E4FC0023237010BD00BFC8
:104B0C007CE60320F0B50025EC1C8C420DD86E1C05
:104B1C00445D875D974205D12644B14205D31D60A3
:104B2C00601CF0BD01342544EEE70020F9E72DE9C7
:104B3C00F34704469DF828701E46894601AB904603
:104B4C000A46016AFFF7DEFF256AB31C17BB08B3E0
:104B5C005F193F1A1F2F19D8DDF8049009F1020ACA
:104B6C00A5EB0902121A00EB090106EB0A0092B23E
:104B7C002144204402F040FE731C04F809303246F4
:104B8C00414604EB0A0002F029FE2762206A02B0BB
:104B9C00BDE8F0872B441F2BF8D8731C6355A81C59
:104BAC0025442062324685F801904146204402F0AB
:104BBC0015FE236A33442362E8E7000010B5002396
:104BCC008AB02022CDE902230446084A0092084903
:104BDC0002AA0120FFF704FD206806490088002383
:104BEC002246FFF7F1FB0AB010BD00BFC3790D00E0
:104BFC00B8790D00AD650D00024A00210A20FFF7BF
:104C0C00E7BC00BF59430D0038B503688B4205461D
:104C1C000C460CD011B14B6801334B60286828B19D
:104C2C004368013B43600BB9FFF73BFF2C60284600
:104C3C0038BD10B5836804462BB103220146984752
:104C4C000023C4E90233204610BD10B58368044626
:104C5C002BB10322014698470023C4E902332046B6
:104C6C0010BD022A38B5044607D0032A11D0012AF8
:104C7C0001D10B682360002038BD08200D68FFF7B8
:104C8C0002FA03460028F5D095E8030083E80300F8
:104C9C00F0E700680028EED0082102F06CFCEAE78F
:104CAC0030B40D4611461A46036809682868D3E9E2
:104CBC000043A44630BC604730B5013802EB4101DB
:104CCC00134610F8014F240904F13005392D88BF23
:104CDC0004F1370503F8025B047804F00F0404F1C7
:104CEC003005392D88BF04F13705994203F8015C72
:104CFC00E7D1104630BD10B58368044613B10322CA
:104D0C0001469847204610BD10B504465830FFF7B1
:104D1C00F2FF04F14800BDE81040FFF779BDA0F1A7
:104D2C003003DAB2092A01D818467047A0F16103A2
:104D3C00052B01D857387047A0F14103052B94BFC0
:104D4C0037384FF0FF30704710B50023044603701E
:104D5C00FFF7C0FE204610BD10B5037804460BB11A
:104D6C00FFF7C4FE204610BD82B0034608684968B0
:104D7C006A4603C26A4603CA18601846596002B0F4
:104D8C00704708B582798B799A4206D1062202F0D7
:104D9C0017FDB0FA80F0400908BD0020FCE74FF089
:104DAC00FF330360838000207047002108B5016049
:104DBC0041600246FFF7F3FF9171104608BD0000F9
:104DCC0001220261064A1168016051684160118933
:104DDC00927A827200220181C0F80B20C273704754
:104DEC00D87B0D000B7C13F0FD0310B50FD10E4AD0
:104DFC00C0F80B3014680460546844601489927ACB
:104E0C00036104818272C3730B88838110BD0123FB
:104E1C00036101F11002034651F8044B43F8044BB3
:104E2C009142F9D1F2E700BFD87B0D0010B50B69A8
:104E3C00036101F11002034651F8044B43F8044B93
:104E4C009142F9D110BD10B50B460446B1B1012AFF
:104E5C0001F110020AD1014653F8040B41F8040B7E
:104E6C009342F9D101232361204610BD411E12F853
:104E7C00010D01F8010F9A42F9D1F3E7102202F06B
:104E8C00D5FCF1E710B503460C46FFF799FF00225D
:104E9C001A619C81184610BD08B502690B699A42CB
:104EAC0006D1102202F08CFCB0FA80F0400908BD4B
:104EBC000020FCE701232DE9F3410361324B1A6812
:104ECC0002605A68426000251A899B7A0281044666
:104EDC008372C0F80B50C5730E4621B324213046A3
:104EEC0002F0EAFC042821D1ADF8045001AFB51C46
:104EFC00063615F8020CFFF712FFB0F1000810DBB4
:104F0C0015F8010CFFF70BFF00280ADB023540EA0D
:104F1C000810AE4207F8010BEBD1BDF804305BBAB8
:104F2C00A3810023236102B0BDE8F0811027242166
:104F3C00304602F0C1FCA84206D827440023BC42EC
:104F4C00F1D007F8013DFAE7002FECD0705DFFF7C8
:104F5C00E6FE030615D40001013F5FFA80F804F861
:104F6C0007802421304602F0A7FC0135A84208D95D
:104F7C00705DFFF7D4FE40B20028A4BF40EA0800E1
:104F8C00E0550135D3E700BFD87B0D0013B50446BF
:104F9C000191FFF715FF20460199FFF78BFF204683
:104FAC0002B010BD10B500F10F0301391C7801F8E7
:104FBC00014F834203F1FF33F8D110BD2DE9F042CC
:104FCC001F468EB00C4600295DD0EAB1D0F8109087
:104FDC00551EB9F1000F1BD1027B437BCDF8149009
:104FEC0043EA0223022105AA01A8ADF80430FFF719
:104FFC0063FE042D28BF04252A4605A9204602F08D
:10500C00EDFB04F805906A1C10460EB0BDE8F0826A
:10501C0001A9FFF7C7FF05AA7FB1102101A8FFF76F
:10502C004BFE242D28BF24252A4605A9204602F034
:10503C00D5FB002363556A1CE6E704210DEB010048
:10504C00FFF73AFE2D260DF11D02022102A88DF864
:10505C001C60FFF731FE0DF1220202210DF10A0056
:10506C008DF82160FFF728FE0DF12702022103A81D
:10507C008DF82660FFF720FE8DF82B600BAA062119
:10508C000DF10E00CBE70A46BEE710B58AB0044618
:10509C000023252208466946FFF790FF6946204603
:1050AC00FFF701FC20460AB010BD38B5054601B12A
:1050BC001AB900242C62204638BD1F2A28BF1F2293
:1050CC00144602F08BFBF5E730B49DF8085012B98A
:1050DC00006A30BC7047029530BCFFF728BD1FB585
:1050EC000446024600F11F01002302F8013B9142E5
:1050FC00FBD123620093062201238DF80F20194661
:10510C000DF10F022046FFF7DFFF204604B010BD63
:10511C00F7B515461F460A4601AB016A0646FFF76E
:10512C00F1FC30F002040BD0841EBC4228BF3C467C
:10513C0035B10199023122463144284602F04EFB2A
:10514C00204603B0F0BD37B513460C4601920A4613
:10515C0008210546FFF7DCFF40B9019B22460921D7
:10516C00284603B0BDE83040FFF7D2BF03B030BDD6
:10517C00F0B50C4689B00C490546FFF794FB1F228D
:10518C0069462046FFF7DFFF064650B16C46002704
:10519C0014F8011B2846FFF705FC10B10137BE427D
:1051AC00F6D1284609B0F0BD287A0D0007B50223C8
:1051BC0001AA1921FFF7ACFF28B19DF805309DF825
:1051CC00040040EA032003B05DF804FB38B54FF649
:1051DC00FF730025044643800E2229460570057195
:1051EC00063002F023FB04F11400FFF7E9FD04F193
:1051FC002800FFF7E5FD044904F13C00FFF753FBE1
:10520C006565204638BD00BF287A0D0038B50D689D
:10521C000446014605F12800FFF73EFE40B1AB897C
:10522C00A28A9A4205D8E08A984234BF0020012015
:10523C0038BD0020FCE710B5D0E9063203EBC20202
:10524C009342184606D0046824888C4203F1080364
:10525C00F6D110BD0020FCE7002370B503600546B5
:10526C006820FEF710FF041E04F10C0607D0012382
:10527C00C4E90133044B23603046FFF7A7FFC5E9AF
:10528C000064284670BD00BF847B0D00F0B5064657
:10529C0085B01F460D46002950D0002A4ED0046818
:1052AC002378F42A28BFF42243B32379980709D52D
:1052BC00A08903920023FFF77DF80028039A03DAF4
:1052CC0005B0F0BD6FF0770034682379D90609D5A5
:1052DC00012F07D0A0890023294605B0BDE8F04076
:1052EC00FFF7C2B89B06EBD5022FE9D0A0890023AB
:1052FC00294605B0BDE8F040FFF7C0B860884FF60E
:10530C00FF7188421CD021794E0701D5012F04D1A1
:10531C000B0709D46FF07700D2E7A18900931346ED
:10532C002A46FFF76FF8CBE7022FF3D00023A189B1
:10533C00009313462A46FFF75BF8C1E70248BFE724
:10534C006FF0D100BCE700BFF2FEFFFF10B50368A1
:10535C001A7886B052BB5C884FF6FF70844225D019
:10536C00188A30B31448009014480592CDE90322F2
:10537C00CDE901035888ADF80C00188AADF80E0081
:10538C009889ADF8100059B11A79920644BF0222DF
:10539C0005921B79DB0642BF059B43F00103059385
:1053AC0000216846FFF756F806B010BD6FF0D1002B
:1053BC00FAE76FF07700F7E70100180085560D004B
:1053CC0070B50025056004462820FEF75CFE031E20
:1053DC0003F10C060AD00122C3E90122054A1A6026
:1053EC003046FFF7EDFC1D6283F82450C4E90063DE
:1053FC00204670BDA07B0D0010B50B68044640F82C
:10540C00043B4968FFF700FC204610BDF0B514467C
:10541C0091B0002620230D463246216803A8CDE921
:10542C000836FFF732FE039B0193274B2749009365
:10543C0008AA33460120FFF7D3F803A8FFF7E8F9D1
:10544C001C23ADF8223023689A8AADF83820DB8A09
:10545C00ADF83A302B681E4A1888009608A9FEF75A
:10546C00BDFF00282DDB2B68D3E9064704EBC707EB
:10547C000834A4F108039F4222D054F8083CDB897D
:10548C00002BF5D0102200210DEB0200039602F048
:10549C00CDF954F8083CD9892B6803AA18880096D2
:1054AC001323FEF7B9FF0028E2D010AB184403A970
:1054BC0000F8346C54F8080C3C30FFF74AFAD7E784
:1054CC00002011B0F0BD00BFDF790D00B8790D00E0
:1054DC00DD690D0070B50025056006463020FEF72D
:1054EC00D2FD044688B10123C0E90133094B0360A6
:1054FC004FF6FF7383810E30FFF757FCC4E9065556
:10550C00C4E90855C4E90A55A57574600C343460B7
:10551C00304670BDBC7B0D0010B50B68044640F8DE
:10552C00043B4968FFF770FB204610BD13B50446D9
:10553C0001A8FFF709FC23681C884FF6FF73E41AD7
:10554C0001A818BF0124FFF707FC204602B010BDCC
:10555C0037B505460C4601A8FFF7F6FB2A68236809
:10556C00C2F802306368C2F8063001A8FFF7F4FBFA
:10557C0003B030BD37B50D46044601A8FFF7E4FB78
:10558C002A6852F8023F23605368636001A8FFF752
:10559C00E3FB204603B030BD30B5054687B00C4662
:1055AC0001A8FFF7D1FB2A68236812881B889A424E
:1055BC000DD1294602A8FFF7DDFF214604A8FFF70D
:1055CC00D9FF04A902A8FFF7DCFB044600B90024AC
:1055DC0001A8FFF7C1FB204607B030BD10B504464B
:1055EC005420FEF750FD014660B10023C0E90033A2
:1055FC00C0E90233C0E90433C0E906330362C36275
:10560C00C363C364216019B9094A0A20FEF7E0FF9D
:10561C000020FEF7ABFE20B1054A00210A20FEF760
:10562C00D7FF216803480022FEF70AFF204610BD71
:10563C0059430D00895D0D0010B50B4C2378BFF359
:10564C005B8FDB070ED42046FEF721FD50B10748D7
:10565C00FFF7C4FF2046FEF71FFD054A0549034826
:10566C0001F084FF014810BD78E6032080E603209A
:10567C0050DF0320D7590D0030B50368093B012BCF
:10568C008DB004460D4611D8FFF7D6FFA1880068EF
:10569C00FFF7D1FD034658B92022CDE904200B4A6F
:1056AC0000920B4904AA3220FEF79AFF0DB030BDD0
:1056BC006A6D002AFAD0D4E9032105F14C00CDE93A
:1056CC000312AC6D04AA03A9A047EFE7117A0D00F1
:1056DC00B8790D0008B50020FEF748FE00EAE0702E
:1056EC0008BD002247F67F71C0E90022C0E9022202
:1056FC00C0E90422C0E90E22C0E91022C0E912223E
:10570C00C0E91422C0E91622C0E91822C0E91B2204
:10571C0002620263A0F868107047000070B504467E
:10572C0018300E461546FFF790FA04F12800FFF7E3
:10573C0080FAC4E90365002221460348FEF71EFEE9
:10574C000028A8BF606970BD616C0D002DE9F043A5
:10575C00D0F86C808BB00E46B8F1000F03D101204D
:10576C000BB0BDE8F083056F002DF8D001F12C09CA
:10577C0004230022FF214846FFF7CAFC08360446E2
:10578C0004230022FF213046FFF7C2FCAC4207463F
:10579C0013D0AF420FD12846FEF7B6FF044600BB2C
:1057AC002023CDE90234164B00931649234602AA56
:1057BC003220FEF715FF0020D2E72046FEF7A4FFAB
:1057CC0004460028ECD00246FF212B464846FFF742
:1057DC009FFC2A464146204601F0F2FF0028D8D112
:1057EC00BDE702462B46FF213046FFF791FC2A46C7
:1057FC004146204601F0E4FFB0FA80F04009AFE7E3
:10580C00297A0D00B8790D000368D8690028D4BF37
:10581C0000200120704770B5D0E90053044605EB19
:10582C000316AE4204D02846FEF7F2FF1035F8E717
:10583C002068FEF771FF204670BD10B50446006865
:10584C00FEF76AFF204610BD38B50446C06DFEF762
:10585C0063FF206DFEF760FF04F1380504F144008E
:10586C00FFF7EBFF2846FFF7D6FF04F12800FFF700
:10587C0042FA04F11800FFF73EFA2068FEF74CFFDD
:10588C00204638BD30B515469FB00C4679B172B183
:10589C0001A8FFF726FF21462A4601A8FFF73EFF85
:1058AC00044601A8FFF7D0FF20461FB030BD014CC5
:1058BC00FAE700BFF2FEFFFF38B500230446836011
:1058CC0008200D46FEF7DFFB18B12B6803606B68F0
:1058DC004360034BE360034B2060A360204638BD5C
:1058EC00AD4C0D006F4C0D000B68036013B15A6882
:1058FC0001325A60704710B551F8043B044640F829
:10590C00043BFFF7F1FF23680BB9FFF775F920464D
:10591C0010BD10B551F8043B044640F8043BFFF7AA
:10592C00E3FF204610BD10B551F8043B044640F887
:10593C00043BFFF7D9FF204610BD10B504460068A4
:10594C0028B14368013B43600BB9FFF7AAF8204626
:10595C0010BD10B504460430FFF7EFFF204610BD14
:10596C0010B504460430FFF7E8FF204610BD70B5B3
:10597C00D0E90053044605EBC306AE4204D0281D03
:10598C00FFF7DBFF0835F8E72068FEF7C5FE204679
:10599C0070BD70B5D0E90053044605EBC306AE42AA
:1059AC0004D0281DFFF7C9FF0835F8E72068FEF77B
:1059BC00B3FE204670BD10B504462430FFF7E9FF56
:1059CC0004F11800FFF7D3FF10BDF8B504680646C4
:1059DC0024B304F14400FFF78EF904F13400FFF70F
:1059EC008AF904F12400FFF786F9D4E9065305EB94
:1059FC00C307AF4204D0281DFFF79FFF0835F8E717
:105A0C00A069FEF789FE04F10C00FFF7C2FF2046E7
:105A1C00FFF7ADFF5421204601F0ADFD3046F8BD37
:105A2C00826810B50AB901F0A8FDBDE81040C36842
:105A3C0018472DE9F0470023C0E900338360D1F803
:105A4C000480984505460F4647DD4FEA0810FEF7DF
:105A5C005BFE0646002840D0D5E90041A04204EB8D
:105A6C00011A16D9504515D2AAF1100AA4F1100941
:105A7C00AAEB04040444D1451AD01CB1514620466B
:105A8C00FEF742FF5046FEF7C3FEAAF1100A103C87
:105A9C00F1E70DD0B146A2450AD021464846FEF7A3
:105AAC0033FF2046FEF7B4FE103409F11009F2E77B
:105ABC002868FEF731FEC5F808802E60D7E9004350
:105ACC0004EB0318A04506D021463046FEF736FFFE
:105ADC0010341036F6E77B686B602846BDE8F0871B
:105AEC0030B58DB00C4600F1380101A8FFF7A1FFCD
:105AFC00029B002B2FDD04F12C0104A8FFF738FBCF
:105B0C0004F1080108A8FFF733FB069A0A9B13431C
:105B1C001FD0DDE9014504EB0515AC4219D004A9F1
:105B2C002046FEF761FF60B1012408A8FEF770FE65
:105B3C0004A8FEF76DFE01A8FFF76DFE20460DB020
:105B4C0030BD204608A9FEF74FFF10340028E4D0E2
:105B5C00EAE70024E9E70124EDE7F8B50023C0E902
:105B6C00003383604F689F4205460E4639DDF800CE
:105B7C00FEF7CAFD0446A0B3D5E90032984203EB08
:105B8C00C20210D990420FD2083AA3F10800D31ADE
:105B9C002344904212D01BB11168196051685960AE
:105BAC00083A083BF5E709D021469A4206D0186816
:105BBC0008605868486008330831F6E72868FEF733
:105BCC00ABFD2C60AF60D6E9003103EBC10098420D
:105BDC0006D01A6822605A68626008330834F6E707
:105BEC0069602846F8BD70B504460020C4E9000081
:105BFC00A0604E6886420D4612DD7100FEF794FDE2
:105C0C0070B12060A660D5E9003203EB42029A42E3
:105C1C0004D033F8021B20F8021BF8E76B686360B2
:105C2C00204670BDF0B50B6803604B68436001F112
:105C3C00080506460F4600F108040FCD0FC40FCD22
:105C4C000FC42B68236007F12C050FCD06F12C0433
:105C5C000FC40FCD0FC42B68236097F8503086F813
:105C6C0050303046F0BD8842F8B504460D46164615
:105C7C0014D9904213D2A2F10806751AA1F10807A3
:105C8C002C44B74218D01CB131462046FFF74BFECE
:105C9C00301DFFF752FE083E083CF2E70CD0B5422F
:105CAC000AD01CB129462046FFF73DFE281DFFF700
:105CBC0044FE08350834F2E7F8BD2DE9F041D0E98F
:105CCC0000430546884604EBC307A74203D10026D0
:105CDC003046BDE8F08141462046FFF75DFC0646A4
:105CEC0008B90834F1E7002CF1D0201DFFF725FE90
:105CFC00D5E9003204F1080103EBC2022046FFF79C
:105D0C00B2FF6B68013B6B60E2E7F7B5044646688F
:105D1C006846FFF708FED4E901739F4212DB013796
:105D2C00002F29DDF800FEF7EFFC0546F0B1D4E9B1
:105D3C00001201EBC202FFF796FF2068FEF7ECFCA5
:105D4C002560A7602368626803EBC60603EBC202FA
:105D5C00314606F10800FFF786FF1EB16946304652
:105D6C00FFF7E1FD636801336360012501A8FFF7CC
:105D7C00E4FD284603B0F0BD0025DEE72DE9F04137
:105D8C0005468EB003A80C46FEF7DEFF2E68042EE7
:105D9C006BD007D8032E28D003A8FEF7DDFF0EB07A
:105DAC00BDE8F081A6F10C03032BF5D8A989204698
:105DBC00FFF741FA07460028EED0E36C002BEBD03E
:105DCC001022002107A801F031FD0D2E06978DF849
:105DDC001C6040F092806B68099306230893236D36
:105DEC0006A904F144009847D6E704A8FFF772FB14
:105DFC00049BAA891A806968049808310230FEF75E
:105E0C00B3FF04A906A8FFF78EFD06A904F118003C
:105E1C00FFF77BFF054607A8FFF78FFD20230693AE
:105E2C008DB93E4B3E49009332202B4606AA07956E
:105E3C00FEF7D6FB049B29461888FEF7B1FA05A895
:105E4C00FFF77BFDA8E7374A0092002334490793FC
:105E5C0006AA0120FEF7C4FBE36A002BEFD004A9CD
:105E6C0004F12400FFF7DCFDE9E7A9892046FFF7E0
:105E7C00E2F9064600288FD00568D5E906314FF6C1
:105E8C00FF722A8003EBC101994203D053F8080B2F
:105E9C004280F9E7D5E9037307EBC308B84504D092
:105EAC00381DFFF74AFD0837F8E700232B61D5E9C9
:105EBC00067307EBC308B84504D0381DFFF73DFD4A
:105ECC000837F8E70023EB61AB72E36B23B1314683
:105EDC0004F13400FFF7A4FD00232022CDE90623B2
:105EEC00114A00920E4906AA0120FEF779FB3146B1
:105EFC0004F11800FFF7E1FE4EE70F2E7FF46FAFB1
:105F0C006B6809932B7A03F00102C3F340038DF8FD
:105F1C0029308DF82820082360E700BF447A0D0053
:105F2C00B8790D006A7A0D00877A0D0013B50B460F
:105F3C000246D0E900016C4684E8030093E80300B4
:105F4C0082E8030094E8030083E8030002B010BD6C
:105F5C0038B505460C46FFF7E9FFAB68A268AA60A6
:105F6C00A360EB68E268EA60E36038BD1FB500230C
:105F7C000446084669460293FFF7EAFF2146684645
:105F8C00FFF7E6FF6846FEF7B6FE204604B010BDEC
:105F9C0010B5046886B04C3471B1CDE9001202A87A
:105FAC006946FFF789FC02A92046FFF7DFFF02A82C
:105FBC00FEF7A1FE06B010BD0491F4E730B585B034
:105FCC00002302938B6805460C4633B102226846C7
:105FDC009847E3680393A368029329466846FFF742
:105FEC00B7FF6846FEF787FE284605B030BD38B5CA
:105FFC000D4601684B6D044623B128684C314C307A
:10600C00FFF7DCFF20462B6840F8043B6968FEF77D
:10601C00FBFD204638BD2DE9F043044687B06846A9
:10602C000E461746FEF790FE2368D3E9064304EBB1
:10603C00C3084445A14617D054F8081B01A81431D5
:10604C00FEF7F4FE394601A8FEF726FF05460028A8
:10605C00EFD049463046FFF7CAFF6846FEF77CFE94
:10606C00284607B0BDE8F0830025F6E78842F8B56E
:10607C0004460D46164611D9904210D2A2F11406D0
:10608C00751AA1F114072C44B74212D01CB1314639
:10609C002046FEF7CBFE143E143CF5E709D0B54282
:1060AC0007D01CB129462046FEF7C0FE1435143427
:1060BC00F5E7F8BDF8B50E1E054613DD142707FBF2
:1060CC0006F0FEF721FB044658B1D5E9001207FB98
:1060DC000212FFF7CBFF2868FEF71EFB2C60AE60A8
:1060EC000120F8BD0024F6E72DE9F0410023C0E9BA
:1060FC00003383600D4649689942044615DDFFF76D
:10610C00D9FF90B1D5E900634FF01408276808FB5C
:10611C000368B04507D01FB131463846FEF786FEFE
:10612C0014361437F5E76B6863602046BDE8F081E0
:10613C0030B587B04568044601A8FEF777FED4E970
:10614C000113994211DA23686168142202FB0535A8
:10615C0005F1140002FB01322946FFF787FF65B9F0
:10616C00636801336360012005E001312046FFF7CD
:10617C00A1FF0028E7D107B030BD01A92846FEF7E2
:10618C0055FEEDE72DE9F04F0024C0E90044A2F1E3
:10619C0002098DB005460F46904684605FFA89F976
:1061AC00396AA1424FD901AB4246091B3819FEF797
:1061BC00A9FC0646002846D0B9F1010F1ED8A0F163
:1061CC00020B4FEA5B0B4FF0000AD345019B36D014
:1061DC00234403EB4A033B4402A8D9789B7843EA57
:1061EC000121FEF74FFE02A907A8FEF71FFE07A923
:1061FC002846FFF79DFF0AF1010AE6E7A8F106031E
:10620C00012B1CD8A0F1020B4FEA1B1B4FF0000A0C
:10621C00D345019913D00231214401EB0A1101221B
:10622C00394402A8FEF70FFE02A907A8FEF7FEFDEF
:10623C0007A92846FFF77CFF0AF1010AE8E7019855
:10624C0006443444ACE728460DB0BDE8F08F2DE988
:10625C00F041D1E900684468836804EB0801994275
:10626C00054617DC2A686968142303FB042403FB26
:10627C0008F703FB0122E0192146FFF7F7FE37442C
:10628C00B7420DD01CB131462046FEF7CFFD143677
:10629C001434F5E7FFF70EFF0028E3D1BDE8F081D9
:1062AC006B6843446B600120F8E730B5002385B080
:1062BC00C0E9003383600446022201A80D46FFF7B3
:1062CC0061FF01A92046FFF7C2FF01A8FFF7B5FA4D
:1062DC000222294601A8FFF755FF01A92046FFF726
:1062EC00B6FF01A8FFF7A9FA0322294601A8FFF778
:1062FC0049FF01A92046FFF7AAFF01A8FFF79DFA65
:10630C000622294601A8FFF73DFF01A92046FFF709
:10631C009EFF01A8FFF791FA0722294601A8FFF773
:10632C0031FF01A92046FFF792FF01A8FFF785FA7C
:10633C00204605B030BD2DE9F04385B088460146B6
:10634C0001A89146FFF7B1FF019E029A142303FBAB
:10635C00026E00279C46B6450DD0B94506F11406D1
:10636C0009D0A6F114050FCD0CFB07840FC42B68C4
:10637C0023600137EFE701A8FFF75FFA384605B055
:10638C00BDE8F0832DE9F04F8BB00C4600F14401D1
:10639C0001A8FFF7A9FE029B002B4ADD04F12C019A
:1063AC0004A8FFF782FF04F1080107A8FFF77DFF9F
:1063BC00059D002D02DC089B002B38DDDDE90797DD
:1063CC00019A029EDDF81080142303FB062603FBC2
:1063DC00058503FB07979246B24528D0C346AB45CB
:1063EC0015D059465046FEF757FD0BF1140B0446D9
:1063FC000028F4D007A8FFF720FA04A8FFF71DFA2D
:10640C0001A8FFF71AFA20460BB0BDE8F08FCB4677
:10641C00BB4509D059465046FEF73EFD0BF1140B17
:10642C0004460028F4D0E5E70AF1140AD4E7002466
:10643C00E0E70124E4E78842F8B504460D46164629
:10644C0014D9904213D2A2F10806751AA1F10807CB
:10645C002C44B74218D01CB131462046FFF759FAEC
:10646C00301DFFF76AFA083E083CF2E70CD0B54243
:10647C000AD01CB129462046FFF74BFA281DFFF71E
:10648C005CFA08350834F2E7F8BD70B50E1E054607
:10649C0011DDF000FEF738F9044658B1D5E90012C9
:1064AC0001EBC202FFF7C7FF2868FEF735F92C6035
:1064BC00AE60012070BD0024F6E72DE9F041002309
:1064CC00C0E9003383600D4649689942044613DDE8
:1064DC00FFF7DBFF80B1D5E90063276806EBC30843
:1064EC00B04507D01FB131463846FFF712FA0836CF
:1064FC000837F5E76B6863602046BDE8F08137B577
:10650C000D46044601A8FEF71FFC296820460C31F5
:10651C00FFF7D3FF01A8FEF71FFC204603B030BDE8
:10652C0038B50B689B7A05460C4633B90846FEF71E
:10653C0045FB10B9236801229A7228462146FFF7C1
:10654C00DEFF284638BD73B5044645686846FFF73C
:10655C00E0F9D4E90113994210DA2368626803EB7D
:10656C00C50503EBC202294605F10800FFF763FFDE
:10657C008DB9636801336360012606E00131204662
:10658C00FFF783FF06460028E7D101A8FFF7D5F9EE
:10659C00304602B070BD69462846FFF7BAF9E8E705
:1065AC002DE9F04FDFF8B890DFF8B8A093B00546AE
:1065BC00884600272B68BB424ED903A8FEF700FF84
:1065CC001C266A68039C7E4332440DF1140C131D87
:1065DC00E346143218685968E646AEE803000833FF
:1065EC009342F446F6D11868CEF8000059460AA832
:1065FC00FEF7F8FB0DF1280CBCE80F000FC4DCF81B
:10660C00003023606B68039A334403A91B8B93827D
:10661C006B681E44738BD382D8F8000000F10C0415
:10662C000AA8FFF776F920460AA9FFF78CFF044663
:10663C000BA8FFF782F954B92023CDE90A34CDF821
:10664C00009023460AAA51463220FDF7C9FF04A840
:10665C00FFF773F90137ADE713B0BDE8F08F00BF5A
:10666C00A67A0D00B8790D008842F8B504460D469F
:10667C00164614D9904213D2A2F10806751AA1F14C
:10668C0008072C44B74218D01CB131462046FFF7FE
:10669C0032F9301DFFF751F9083E083CF2E70CD0F7
:1066AC00B5420AD01CB129462046FFF724F9281D13
:1066BC00FFF743F908350834F2E7F8BD70B50E1E44
:1066CC00054611DDF000FEF71FF8044658B1D5E978
:1066DC00001201EBC202FFF7C7FF2868FEF71CF897
:1066EC002C60AE60012070BD0024F6E72DE9F0416E
:1066FC000023C0E9003383600D4649689942044683
:10670C0013DDFFF7DBFF80B1D5E90063276806EBEB
:10671C00C308B04507D01FB131463846FFF7EBF838
:10672C0008360837F5E76B6863602046BDE8F081F2
:10673C0037B50D46044601A8FEF706FB296820462E
:10674C001831FFF7D3FF01A8FEF706FB204603B074
:10675C0030BD73B5044645686846FFF7CCF8D4E9FC
:10676C000113994210DA2368626803EBC50503EB49
:10677C00C202294605F10800FFF776FF8DB9636860
:10678C0001336360012606E001312046FFF796FFD6
:10679C0006460028E7D101A8FFF7CFF8304602B033
:1067AC0070BD69462846FFF7A6F8E8E7F0B585B056
:1067BC00054601A80C461746FEF7C6FA0023C5E9A4
:1067CC000033AB602368D3E9064604EBC606B4423B
:1067DC0011D038682146FEF719FD50B1214602A8A8
:1067EC00FFF789F802A92846FFF7B3FF03A8FFF7C4
:1067FC00A4F80834EBE701A8FEF7AEFA284605B07A
:10680C00F0BD73B50B689B7A04460E4615462BB942
:10681C00C0E900338360204602B070BD13681B7E54
:10682C0033B901A8FEF7F2FD10B92B6801221A76D4
:10683C002A4631462046FFF7B9FFECE7F0B50B6866
:10684C009B7A85B006460D462BB901A8FFF768FE6A
:10685C0001A8FFF78CF82B68D3E9034704EBC707B3
:10686C00BC4209D02246294601A8FFF7CAFF01A85D
:10687C00FFF78FF80834F3E730462946FFF758FF47
:10688C00304605B0F0BD00002DE9F04393B005464D
:10689C000F4608684968079298463F4B04934FF09F
:1068AC00000905AB0AAC03C483E80300CDE90899E1
:1068BC00FEF7C2FE394B0893FEF7BEFE296803684B
:1068CC0009934A4604A8FDF7B1FD0AAE044638B157
:1068DC002B684FF6FF721A80204613B0BDE8F08388
:1068EC0039462846FEF734FE03A8FEF72DFAFEF7CC
:1068FC00A3FE0768294618373046FFF714F83146CF
:10690C003846FFF702FA07460BA8FFF716F84FF0C8
:10691C002009EFB9224B23490093324623463220FB
:10692C00CDE90A94FDF75CFE03A8FEF7DFF82B68AF
:10693C00214618881C4CFDF733FD03A8FEF7CAF856
:10694C002B684FF6FF721A8003A8FEF705FAC3E70F
:10695C0003A8FEF701FA154B009312492346324661
:10696C000120CDE90A94FDF73BFEB8F1000FB3D03E
:10697C0029463046FFF762FFDDE90A5305EBC307F2
:10698C00AF4205D028460121FEF7E0FC0835F7E7B9
:10699C003046FEF7FEFF9FE701001800895D0D00F1
:1069AC00CB7A0D00B8790D00FCFEFFFFE77A0D00E5
:1069BC0013B50446CDE90032FEF78CFD009B01991E
:1069CC0000222046FFF760FF204602B010BD0000F9
:1069DC002DE9F04F202395B00026CDE90C36654B00
:1069EC00009305460F4633466349DFF89091DFF874
:1069FC008881DFF88CA10CAA0120FDF7F1FD2B6832
:106A0C00B34240F2B38003A8FEF726FC05A8FEF7BC
:106A1C00D7FC4FF02A0B6B68039A0BFB06FB5B440D
:106A2C00D98B1181198C5181588C9081998CD18181
:106A3C00D98C11821B8D5382D7E9031301EBC3034D
:106A4C008B427BD00A68D48A844275D3928A824264
:106A5C0072D805A8FEF7D0FCDDF814C0DDF80CE008
:106A6C00BCE80F000EF128040FC4DCF800302360E2
:106A7C002B89AEF802306B68039C5B445B7E13F091
:106A8C00020F6ED16B685B445B7E580742BF237963
:106A9C0043F0040323716B685B445B7E190742BFB0
:106AAC00237943F0080323716B685B445B7EDA0641
:106ABC0042BF237943F0100323716B685B4407AA30
:106ACC005B7E9B0642BF237943F0200323716B68E6
:106ADC009B440BF1040396460BF1140B1868596890
:106AEC009446ACE8030008335B456246F6D118685F
:106AFC00CCF8000071460CA8FEF774F90DF1300CBF
:106B0C00BCE80F0014340FC4DCF80030236003A978
:106B1C000CA8FEF7F0FE0CA907F11800FFF719FE00
:106B2C0004460DA8FEF709FF9CB92023CDE90C34CF
:106B3C00CDF800A0234607E0083181E7202400238C
:106B4C00CDE90C43CDF800900CAA41463220FDF75C
:106B5C0047FD06A8FEF7F1FE04A8FEF7EEFE01368F
:106B6C004DE7237943F0020323718BE715B0BDE8A1
:106B7C00F08F00BF047B0D00B8790D001F7B0D005A
:106B8C004E7B0D008842F8B504460D46164611D9C9
:106B9C00904210D2A2F15406751AA1F154072C445C
:106BAC00B74212D01CB131462046FFF73BF8543E99
:106BBC00543CF5E709D0B54207D01CB12946204614
:106BCC00FFF730F854355434F5E7F8BDF8B50E1E20
:106BDC00054613DD542707FB06F0FDF795FD04462B
:106BEC0058B1D5E9001207FB0212FFF7CBFF28685A
:106BFC00FDF792FD2C60AE600120F8BD0024F6E795
:106C0C0030B597B04568044601A8FFF70BF8D4E9F6
:106C1C000113994211DA23686168542202FB05358D
:106C2C0005F1540002FB01322946FFF7ABFF65B9B1
:106C3C00636801336360012005E001312046FFF7F2
:106C4C00C5FF0028E7D117B030BD01A92846FEF7D3
:106C5C00E9FFEDE72DE9F043ABB06D46064628465B
:106C6C000C46FEF7A2F802A8FEF739FA0BA8FEF7BD
:106C7C0036FA324615AB52F8100F5168F28903C33D
:106C8C0085E803003378B1688DF850300BA8FEF717
:106C9C000CFAB289716802A8FEF707FA94F9683009
:106CAC007F2B15AF03D09DF950209A425CDB94F9F1
:106CBC0069307F2B03D09DF950209A4254DC04F1AB
:106CCC0050013846FEF749FF169B002B4FDD159EF1
:106CDC0006EBC309B1454DD030462946FEF751F8B5
:106CEC00083680460028F5D01598FDF715FDB8F14B
:106CFC00000F39D029462046FEF7F2FEA0B32946F4
:106D0C002046FFF73FFB064670B304F15C013846A2
:106D1C00FEF769FF169B002B12DD0BA8FEF746FA57
:106D2C00804602A8FEF742FADDE9153203EB420277
:106D3C00934222D033F8021B884501D08842F7D108
:106D4C001598FDF7E9FC7EB129462046FEF7FEFCBE
:106D5C0050B1236A9BB16369159501336361636A12
:106D6C00394604F1180098472BB0BDE8F0834FF07A
:106D7C000108B9E74FF00008B6E70026E0E7D4F8C1
:106D8C0030C0BCF1000F07D0636901336361294641
:106D9C00636B04F12800E6E7E66856B363695A1C96
:106DAC00236962619A42DFD8542303CD5343543B89
:106DBC00F718F050796002AE0FCE07F108050FC539
:106DCC000FCE0FC533682B600BAE0FCE07F12C0521
:106DDC000FC50FCE0FC533682B609DF9503087F867
:106DEC005030D4E904329A42BED36046FDF7CEFA55
:106DFC00BAE795E8030002AD87E803000FCD17AEA4
:106E0C000FC60FCD0FC62B6833600BAD0FCD20AE68
:106E1C000FC60FCD0FC62B68336039469DF8503026
:106E2C008DF8A4302046FFF7EBFE9DE710B5064C1D
:106E3C00002320462360FDF72BFB2046034A044920
:106E4C00BDE8104000F092BB7CE6032050DF03202D
:106E5C00CF4A0D00F8B506460D468F180024BD42EA
:106E6C000CD0336815F8011B9B6830469847031EFD
:106E7C0001DB1C44F3E7002C08BF1C462046F8BD80
:106E8C0013B50446084659B1019100F00DFD236875
:106E9C000199DB680246204602B0BDE81040184755
:106EAC0002B010BD03689B68184738B50D21054624
:106EBC00FFF7F8FF0A2104462846FFF7F3FF2044AA
:106ECC0038BD38B50546FFF7DBFF04462846FFF70B
:106EDC00ECFF204438BD30B58BB000238DF8243046
:106EEC00012A98BF0A2209AC0D46B1FBF2F101FB55
:106EFC00125303F0FF03092B94BF30333733DBB24B
:106F0C00AA4204F8013DEFD92146FFF7B9FF0BB0B7
:106F1C0030BD002340681A461946FDF7ADBB000092
:106F2C00014B024A1A60704784E60320E87B0D008F
:106F3C00024B1A68024B1A60704700BFE8DE032050
:106F4C0088E6032010B50446FDF7D5FE204610BD9B
:106F5C000348044A04490023836000F007BB00BFC8
:106F6C008CE6032050DF0320516F0D00014B18609D
:106F7C00704700BFECDE032008B50B4B43B100F0AB
:106F8C005FF903681B699847002801DDAFF30080A7
:106F9C00064B43B100F0D2F903681B6998470028EF
:106FAC0001DDAFF3008008BD000000000000000010
:106FBC0008B5FFF7E1FFFDF7D1F9014B186008BDEB
:106FCC00ECE703200248034A0349121A00F006BCFE
:106FDC0000F4032004F40320107E0D0007B50023F9
:106FEC0000931A466FF07701FDF71CFB03B05DF8B8
:106FFC0004FB000007B543880A2B08D0502B0BD19B
:10700C00094B1B684BB103B05DF804EB1847FFF755
:10701C00E5FF03B05DF804FB002300931A466FF004
:10702C007701FDF7FFFAF4E7A0E6032038B5124C20
:10703C001248134D0021FDF787FB2368AB42114B1F
:10704C000CBF012200221A7002D0FFF7BBFF256093
:10705C00FDF774F9044600F0F1FB0B4B13B120461D
:10706C00AFF3008000210848FDF746FBBDE838402F
:10707C0006480021FDF7CCBA00F40320796F0D000F
:10708C001E1C279A9CE603200000000001700D00D6
:10709C00704710B51821044600F06DFA204610BD5B
:1070AC00F0B5037D062B8DB00E4600F104074FF0B2
:1070BC00000412D000F1080515F8011D0A22304613
:1070CC00FFF709FFAF42044419D0002CF4D02E2155
:1070DC003046FFF7E7FE0444EEE72F236A463946B5
:1070EC000A208DF80040FDF7F3F9684600F0DCFB50
:1070FC0033680246DB6869463046984704462046AA
:10710C000DB0F0BD10B5054B0446112240F8043B00
:10711C00002100F08BFB204610BD00BF107C0D0041
:10712C000346074A10B543F8042B01F1100251F83D
:10713C00044B43F8044B9142F9D10A781A7010BDF4
:10714C00107C0D0010B59DF8084044EA032343EA77
:10715C00024242EA016104234160037510BD000044
:10716C0013B5054B0360CB7800938B784A7809787C
:10717C00FFF7E8FF02B010BD107C0D0041747047A2
:10718C00704708B50021007CFDF702FA40EAE07078
:10719C0008BD08B50121007CFDF7FAF940EAE07062
:1071AC0008BD08B5007CFDF7EBF920EAE07008BDDE
:1071BC0008B5007CFDF7DCF920EAE07008BD13B5DA
:1071CC000446007C0191FDF7DBF90028019901DCF4
:1071DC00607C20B1207CFDF7E3F920EAE07002B07E
:1071EC0010BD007CFDF7E4B910B51421044600F085
:1071FC00C2F9204610BD000010B54FF47A73044656
:10720C0008460021C4E90113044B236001232074B8
:10721C0063741146FDF79CF9204610BD247C0D00CB
:10722C00007C0022FDF79CB9007CFDF7C9B910B5B4
:10723C0014220446002100F0F9FA204610BD00008B
:10724C0010B5104C88B003A8FFF7F1FF2178BFF3FD
:10725C005B8F11F0010111D120460191FCF717FF52
:10726C00019958B103AA0848FFF7C6FF2046FCF75E
:10727C0013FF064A0649044800F078F9024808B0A2
:10728C0010BD00BFA4E60320A8E6032050DF0320B6
:10729C008D710D0070474174704708B5007CFDF787
:1072AC004FF920EAE07008BD08B5007CFDF728F91D
:1072BC0020EAE07008BD08B5007CFDF731F940EA22
:1072CC00E07008BD08B5007CFDF722F940EAE070DB
:1072DC0008BD007CFDF72CB937B5457C04462DB1B3
:1072EC00207C03B0BDE83040FDF702B9007C019171
:1072FC00FDF726F900280199F2DC284603B030BDD1
:10730C0010B51421044600F036F9204610BD0000DB
:10731C0010B54FF0000C0446084611464FF47A7233
:10732C00C4E901C2044A22600122207462741A4624
:10733C00FDF7D6F8204610BD547C0D0013B50E4C4D
:10734C002178BFF35B8F11F0010112D1204601911E
:10735C00FCF79DFE019960B1084A094B0948FFF7FB
:10736C00D7FF2046FCF798FE074A0849054800F06D
:10737C00FDF8044802B010BDBCE60320C0E60320B3
:10738C0044E70320C8E7032050DF0320A1720D005F
:10739C00002240681146FDF767B90022406811468B
:1073AC00FDF782B9002240681146FDF78DB940689F
:1073BC000022FDF781B94068002281F00101FDF740
:1073CC006BB9002340681A461946FDF75DB90022D7
:1073DC0040681146FDF738B9406800220221FDF7DC
:1073EC003BB9002340681A46FDF726B9024B04222C
:1073FC005A60024A1A607047DCE70320847C0D0057
:10740C00002340681A46FDF717B940680022022194
:10741C00FDF722B9002240681146FDF715B900228C
:10742C0040681146FDF720B9002340681A461946FA
:10743C00FDF722B9002340681A461946FDF724B916
:10744C0040680021FDF748B940680021FDF74CB9B0
:10745C004068002281F00101FDF71EB9406800224E
:10746C00FDF72AB9002240681146FDF72DB900221C
:10747C0040681146FDF718B92DE9F043002495B08A
:10748C0016460D460746FFF73DFE214618220EA86C
:10749C00009400F0CBF94023CDE90C3421466B4627
:1074AC000CAA3046FCF742FF044600284CD1024699
:1074BC0001216868FDF7D8F80221804622466868E9
:1074CC00FDF7D2F8009E81462146002E3CD00029C3
:1074DC003AD17368022B03D00A2B11D0F669F4E76A
:1074EC00B8F1000F0AD0716906A8043107ADFFF797
:1074FC0037FE0FCD3C1D0FC42B6823704146EDE7C2
:10750C00B9F1000F01D14946E8E77469102201A8CE
:10751C0000F08CF906238DF8143001AD04F108034A
:10752C001834186859682A4603C20833A342154612
:10753C00F7D101A906A807ADFFF7F2FD0FCD3C1D51
:10754C000FC42B682370DEE70098FCF7E7FE384683
:10755C0015B0BDE8F0830000024B034A1A6000220C
:10756C005A607047E4E70320C07C0D000B460146CF
:10757C00184600F017B9FCF788BD08B5FDF7DCF824
:10758C00014900F0F9B800BF0C7D0D007FB5002457
:10759C001023CDE90234036800949E698DF80440F1
:1075AC0015466B461268B0479DF8043003F006038D
:1075BC00062B03BF009B2B600120204604B070BD3E
:1075CC000098904214BF01200620704710B5034B61
:1075DC000360044600F0CDF8204610BD4C7D0D0034
:1075EC0010B50446FFF7F2FF20460821FFF7C3FF52
:1075FC00204610BD2DE9F0411F46DDE90834DDF8C9
:10760C00188098450646154607D1079900F0B4F83E
:10761C0018B165710020BDE8F0813946304600F0A4
:10762C00ABF80028F6D00123C4F800802571A371B3
:10763C00F0E738B515461C4600F09EF820B108233B
:10764C00E36006232560237138BD73B505460C46EF
:10765C0001921E4600F090F850B9032E08D823680A
:10766C00019A5B692946204602B0BDE87040184774
:10767C0002B070BD10B5034B03600446FFF7A6FFC4
:10768C00204610BDAC7D0D0010B50446FFF7F2FF8F
:10769C0020460C21FFF76FFF204610BDF7B5089F61
:1076AC00974205460E4614460AD0A8680268089709
:1076BC00156A31462246AC4603B0BDE8F04060473F
:1076CC001946019300F058F8019B0028EDD00620D4
:1076DC0003B0F0BD2DE9F14F0D461946DDE90A4B1B
:1076EC00DDE90CA681461746984600F045F890B1A6
:1076FC00002D3460377109DB61198A450CBF0621F6
:10770C000121B171002001B0BDE8F08F0235F9D133
:10771C000123B371F6E7544506D15946484600F0AB
:10772C002BF808B17771EDE7D9F808000368CDE9BB
:10773C000CA6CDE90A4BDC693A4643462946A446D9
:10774C0001B0BDE8F04F60472DE9F04107460C460B
:10775C0015461E46FFF76DFF48B9B86803689F6968
:10776C002A4633462146BC46BDE8F0416047BDE899
:10777C00F081704700207047814208B50ED04068F8
:10778C0003782A2B0CD049680B782A2B08BF0131BF
:10779C0000F078F8B0FA80F0400908BD0120FCE751
:1077AC000020FAE710B5054C13462CB10A460146E9
:1077BC000220AFF3008010BD2046FCE70000000063
:1077CC0030B501390024A24201D1002005E0035D4F
:1077DC0001340D5DAB42F6D0581B30BD0A449142CA
:1077EC0000F1FF3300D1704710B511F8014B03F8CD
:1077FC00014F9142F9D110BD884210B501EB020442
:10780C0002D98442234607D8431EA14208D011F85E
:10781C00012B03F8012FF8E7024401468A4200D1FC
:10782C0010BD13F8014D02F8014DF7E70244034671
:10783C00934200D1704703F8011BF9E738B50D4BA3
:10784C001D68AB6B04467BB91820FCF75DFF0A4A38
:10785C000A4BA863C0E90023094B83600B23838187
:10786C0001220023C0E90423AB6B00221C615A6186
:10787C0038BD00BFECDE03200E33CDAB34126DE609
:10788C00ECDE050010F8012B11F8013B012A28BF92
:10789C009A42F7D0D01A7047034611F8012B03F81F
:1078AC00012B002AF9D17047034613F8012B002A4B
:1078BC00FBD1181A0138704710B5024601448A42B0
:1078CC00134601D1181A10BD1C780132002CF6D1C8
:1078DC00F8E700001D400D0059400D0081400D00DF
:1078EC0085400D000000000043656E7472616C20D1
:1078FC00696E697469616C697A65642E2E2E003626
:10790C00453430303030312D423541332D4633390A
:10791C00332D453041392D453530453234444343C0
:10792C004139450036453430303030322D42354106
:10793C00332D463339332D453041392D45353045BE
:10794C0032344443434139450036453430303030CD
:10795C00332D423541332D463339332D45304139A2
:10796C002D45353045323444434341394500000000
:10797C000000000000000000C3470D00B9470D00D7
:10798C00AF470D00A5470D0099470D008D470D0021
:10799C004D740D0055740D0081470D0079470D0095
:1079AC006F470D0065470D0085740D00776972698E
:1079BC006E672E626C650053746172742064697317
:1079CC00636F766572696E6720736572766963653D
:1079DC00732E00537461727420646973636F7665DF
:1079EC0072696E6720636861726163746572697332
:1079FC0074696373206F6620736572766963653A88
:107A0C002025732E00506565722064657669636568
:107A1C00206973206D697373696E67210046616913
:107A2C006C656420746F20616C6C6F63617465208D
:107A3C006D656D6F727921004661696C65642074A7
:107A4C006F20617070656E6420706565722043658F
:107A5C006E7472616C206465766963652E00436F89
:107A6C006E6E65637465642062792043656E747212
:107A7C00616C206465766963652E00446973636F7D
:107A8C006E6E65637465642062792072656D6F74C7
:107A9C0065206465766963652E004661696C656472
:107AAC0020746F20617070656E6420646973636FFD
:107ABC00766572656420736572766963652E004322
:107ACC00616E6E6F7420616464206E6577207065E2
:107ADC006572206465766963652E004E657720704B
:107AEC0065726970686572616C20697320636F6E72
:107AFC006E65637465642E004368617261637465BE
:107B0C0072697374696320646973636F76657265F7
:107B1C00642E00446973636F7665726564206368D4
:107B2C006172616374657269737469632773206829
:107B3C00616E646C6520697320696E76616C696432
:107B4C002E004661696C656420746F2061707065ED
:107B5C006E6420646973636F766572656420636814
:107B6C006172616374657269737469632E000000DD
:107B7C000000000000000000154A0D00794A0D00BD
:107B8C00154D0D00A34A0D00194A0D000000000010
:107B9C0000000000114A0D00874A0D00134A0D0029
:107BAC00A74A0D00394A0D0000000000000000003B
:107BBC000F4A0D00954A0D00C3590D00AB4A0D003C
:107BCC00594A0D000000000000000000FB349B5FD0
:107BDC008000008000100000000000006170700048
:107BEC0025592D256D2D25645425483A254D3A25CA
:107BFC0053257A0061736374696D650000000000A1
:107C0C0000000000AD700D009D700D009F700D0008
:107C1C0000000000000000008D710D00F5710D00DA
:107C2C00CB710D00616E0D00BD710D008F710D00DB
:107C3C009F710D00EF710D00AF710D0089710D007A
:107C4C000000000000000000A1720D000D730D007B
:107C5C00E5720D00616E0D00B5720D00D1720D0054
:107C6C00C3720D00DF720D00A3720D00A7720D0020
:107C7C000000000000000000EF730D00E5730D0024
:107C8C00DB730D009D730D001F6F0D00CF730D0086
:107C9C004D740D0055740D00C3730D00BB730D00B6
:107CAC00B1730D00A7730D0085740D00000000006A
:107CBC00000000000D740D0017740D0021740D00F0
:107CCC002B740D0035740D0041740D004D740D00B6
:107CDC0055740D005D740D0069740D0071740D0008
:107CEC007B740D0085740D00537431395F53705FD4
:107CFC006D616B655F7368617265645F7461670069
:107D0C004C7D0D00F47C0D00AC7D0D00207D0D0034
:107D1C00D07D0D004E31305F5F637878616269769B
:107D2C003131375F5F636C6173735F747970655F5A
:107D3C00696E666F4500000000000000147D0D00A8
:107D4C00D9750D00ED750D0081770D0081770D0053
:107D5C0057760D0099750D003F760D0001760D00DC
:107D6C00CD750D00AC7D0D007C7D0D00147D0D00DE
:107D7C004E31305F5F637878616269763132305FA3
:107D8C005F73695F636C6173735F747970655F694E
:107D9C006E666F450000000000000000707D0D0055
:107DAC0081760D0095760D0081770D0081770D00A1
:107DBC0057760D0099750D0055770D00E1760D0085
:107DCC00A9760D004C7D0D00D87D0D0053743974CF
:107DDC007970655F696E666F000000004D420D00A2
:107DEC00CD470D00E1470D00396E0D002D6F0D00D4
:107DFC003D6F0D005D6F0D00F9730D0065750D0085
:047E0C000000000072
:047E1000000000006E
:107E1400007C0D00F0DE03200000000000000000E4
:107E2400000000000000000000000000000000004E
:107E3400000000000000000000000000000000003E
:107E4400000000000000000000000000000000002E
:107E5400000000000000000000000000000000001E
:107E6400000000000000000000000000000000000E
:087E7400000000000000000006
:107E7C00FFFFFFFF00000102030405060708090AC3
:107E8C000B0C0D0E0F101112131415161718191ABE
:087E9C001B1C1D1E1F20280005
:047EA40078563412C6
:04000003D000401CCD
:00000001FF
